:1000000044C053C052C051C050C04FC04EC04DC07C
:100010004CC04BC04AC049C048C047C0D6C145C00B
:1000200044C0B4C142C041C050C03FC03EC03DC04A
:100030003CC03BC072784572720D0A000D0A004840
:1000400065616465723A000D0A00446973706C6101
:10005000793A000D0A004C6F67646174613A00429E
:1000600075696C74206F6E3A2041756720203520C9
:10007000323031382032323A32303A33380D0A00D9
:1000800025327800AA5555AA000011241FBECFEFD3
:10009000D4E0DEBFCDBF23E0A0E0B1E001C01D92FF
:1000A000AC31B207E1F7D4D163C3AACFFB01640F2F
:1000B0006E1749F0DC013D91CD0124913196321744
:1000C000B9F380E0089581E008951F920F920FB672
:1000D0000F9211248F939F93EF93FF9390910C01B4
:1000E00080910D019817A9F090910C0180910D015C
:1000F000981759F0E0910C01EF5FEF73E0930C015A
:10010000F0E0E45FFE4F828101C080E08093C60092
:1001100002C010920001FF91EF919F918F910F907B
:100120000FBE0F901F901895ECE0F1E01082118245
:100130008CE090E09093C5008093C400E0ECF0E088
:1001400080818260808388E48093C10086E0809310
:10015000C200089520910D0140910C0130E02F5F05
:100160003F4F2F73332750E02417350799F39091B1
:100170000D019F5F9F7320910C01921739F0E92FB9
:10018000F0E0E45FFE4F828390930D0180910001C7
:10019000811117C081E08093000190910C01809142
:1001A0000D01981759F0E0910C01EF5FEF73E093A8
:1001B0000C01F0E0E45FFE4F828101C080E080939B
:1001C000C6000895CF93DF93EC018991882311F045
:1001D000C1DFFBCFDF91CF9108953F924F925F92A5
:1001E0006F927F928F929F92AF92BF92CF92DF9247
:1001F000EF92FF920F931F93CF93DF93CDB7DEB7AC
:1002000064970FB6F894DEBF0FBECDBFFE01B8965F
:10021000419051907F01C12CD12C5E018BE0A80E42
:10022000B11CFE0131964F0180E3382E82010F5F31
:100230001F4FF2018491882309F490C0853209F0A0
:100240008AC03201F2E06F0E711CF8010491802F18
:1002500090E0C0970A9758F409831A82C4010AD221
:10026000D82EF3E04F0E511CF301049132010936F0
:10027000A9F140F4023669F1033619F10532F1F0C3
:100280002301D4CF033769F020F40F36C9F748E0D3
:1002900021C0053721F0083799F740E11BC04AE03B
:1002A00019C0F70100811181F2E0EF0EF11CF80195
:1002B00081918F01882321F34DDFF9CF85E24ADF59
:1002C000DFCF87010E5F1F4FF701808143DF780189
:1002D000D7CF42E0F1E0CF120EC001C04AE0870163
:1002E0000E5F1F4F50E0B501F70180819181F1D180
:1002F000CC24C39409C087010E5F1F4F50E0B501A5
:10030000F7018081918101D2F501CF018A199B0902
:1003100021912111FACF2D2D30E082179307B4F4EB
:10032000D81AF4018D2D90E09F012819390928175A
:10033000390714F43192F8CFF401E80FF91F108255
:10034000B501C401B4D1B401C501BCD1C5013ADFC6
:100350007801D12C95CFFEDE380192CF64960FB68E
:10036000F894DEBF0FBECDBFDF91CF911F910F91EB
:10037000FF90EF90DF90CF90BF90AF909F908F90C5
:100380007F906F905F904F903F9008951F920F92D3
:100390000FB60F9211248F939F93EF93FF939EB507
:1003A00080910B0110920801E82FF0E0E85EFD4F0C
:1003B00090838F5F80930B01FF91EF919F918F91BD
:1003C0000F900FBE0F901F9018951F920F920FB6AF
:1003D0000F9211248F93809108018F3F81F08091BB
:1003E00008018F5F8093080180910801833038F005
:1003F00080910B01882319F081E0809307018F9190
:100400000F900FBE0F901F901895EF92FF920F93D1
:100410001F93CF93DF93EC018C01060F171F80E829
:10042000E82E80E0F82EC017D10759F089911F926D
:100430008F93FF92EF92D1DE0F900F900F900F905D
:10044000F2CFDF91CF911F910F91FF90EF90089520
:100450009FE088E10FB6F894A895809360000FBEE6
:100460009093600061DE249A22982A9A80EC8CBDD9
:1004700082E084BD85BD90E797BD80936E008EE4D9
:1004800091E0909306018093050182E991E09093B9
:1004900004018093030182ED91E090930201809327
:1004A000010178948FE590E09F938F9396DE0F90F3
:1004B0000F9088EC582E94E3692E90E0792ECFE3CC
:1004C000D0E00CE310E02AE4E22E20E0F22E37E444
:1004D000C32E30E0D32E46E5A42E40E0B42E53E5E3
:1004E000852E50E0952E52D0823059F4BF92AF92B3
:1004F00074DE64E470E08EE491E087DF9F928F9277
:100500000CC0833069F4FF92EF9267DE60E470E024
:1005100082E991E07ADFDF92CF925FDEA89511C089
:100520008430A1F45520F9F2DF93CF9356DE66E4D0
:1005300070E082ED91E069DF1F930F934EDEA89586
:100540005A940F900F900F900F90CDCF8F3F59F688
:100550007F926F9242DE0F900F90C5CF6230A0F075
:10056000681312C06150E62FF0E0E85EFD4F208175
:1005700090E0615038F0E62FF0E0E85EFD4F8081BA
:10058000980FF7CF81E0921380E0089580910701E2
:10059000811102C080E008951092070180910B0143
:1005A00010920B019CB59F7B9CBD9CB590649CBD3B
:1005B0008630A1F444E064E870E088E192E076DD02
:1005C000882341F320911C0280911D0290E0922B20
:1005D00090930A018093090181E008952091090117
:1005E00030910A01211593E03907A9F464E4B6DFDC
:1005F000811102C08FEF0895A0910501B09106010D
:10060000109741F284E4E8E1F2E001900D928A95BE
:10061000E1F782E00895211591E0390789F48034EB
:1006200049F7A0910301B0910401109709F4B2CFEA
:10063000E8E1F2E001900D928A95E1F783E00895F8
:1006400021303340A9F466E489DF882309F4A2CF7E
:10065000A0910101B0910201109709F49BCF86E4AB
:10066000E8E1F2E001900D928A95E1F784E00895C7
:100670008EEF0895FC0188279927E8942191203274
:10068000E9F3293010F02E30C8F32B3239F02D3237
:1006900031F4689403C031D0820F911D2191205311
:1006A0002A30C8F31EF4909581959F4F0895FB0161
:1006B000DC010D900020E9F7119701900D920020C8
:1006C000E1F70895FB01DC0101900D920020E1F7B4
:1006D00008954532510518F4423008F004C0FB017A
:1006E0001082CB010895BB274A3031F4992322F4BC
:1006F000BDE2909581959F4F13C07AE0979F902D12
:10070000879F802D910D112408954532510518F4CD
:10071000423008F004C0FB011082CB010895BB27D2
:10072000FB015527AA27880F991FAA1FA41710F0AD
:10073000A41B83955051B9F7A05DAA3308F0A95DB9
:10074000A193009779F7B111B1931192CB0100C039
:10075000DC01FC01672F71917723E1F7329704C028
:100760007C916D9370836291AE17BF07C8F30895B3
:04077000F894FFCF2B
:00000001FF
